{
  "_format": "hh-sol-artifact-1",
  "contractName": "ExpenseFactory",
  "sourceName": "contracts/ExpenseFactory.sol",
  "abi": [
    {
      "inputs": [],
      "stateMutability": "nonpayable",
      "type": "constructor"
    },
    {
      "inputs": [
        {
          "internalType": "address",
          "name": "owner",
          "type": "address"
        }
      ],
      "name": "OwnableInvalidOwner",
      "type": "error"
    },
    {
      "inputs": [
        {
          "internalType": "address",
          "name": "account",
          "type": "address"
        }
      ],
      "name": "OwnableUnauthorizedAccount",
      "type": "error"
    },
    {
      "inputs": [],
      "name": "ReentrancyGuardReentrantCall",
      "type": "error"
    },
    {
      "anonymous": false,
      "inputs": [
        {
          "indexed": true,
          "internalType": "address",
          "name": "group",
          "type": "address"
        },
        {
          "indexed": true,
          "internalType": "address",
          "name": "creator",
          "type": "address"
        },
        {
          "indexed": false,
          "internalType": "string",
          "name": "name",
          "type": "string"
        },
        {
          "indexed": false,
          "internalType": "string",
          "name": "description",
          "type": "string"
        },
        {
          "indexed": false,
          "internalType": "string",
          "name": "category",
          "type": "string"
        },
        {
          "indexed": false,
          "internalType": "string",
          "name": "privacy",
          "type": "string"
        },
        {
          "indexed": false,
          "internalType": "uint256",
          "name": "maxMembers",
          "type": "uint256"
        },
        {
          "indexed": false,
          "internalType": "uint256",
          "name": "timestamp",
          "type": "uint256"
        }
      ],
      "name": "GroupCreated",
      "type": "event"
    },
    {
      "anonymous": false,
      "inputs": [
        {
          "indexed": true,
          "internalType": "address",
          "name": "group",
          "type": "address"
        },
        {
          "indexed": false,
          "internalType": "uint256",
          "name": "timestamp",
          "type": "uint256"
        }
      ],
      "name": "GroupDeactivated",
      "type": "event"
    },
    {
      "anonymous": false,
      "inputs": [
        {
          "indexed": true,
          "internalType": "address",
          "name": "previousOwner",
          "type": "address"
        },
        {
          "indexed": true,
          "internalType": "address",
          "name": "newOwner",
          "type": "address"
        }
      ],
      "name": "OwnershipTransferred",
      "type": "event"
    },
    {
      "inputs": [
        {
          "internalType": "address",
          "name": "_user",
          "type": "address"
        },
        {
          "internalType": "address",
          "name": "_groupAddress",
          "type": "address"
        }
      ],
      "name": "addUserToGroup",
      "outputs": [],
      "stateMutability": "nonpayable",
      "type": "function"
    },
    {
      "inputs": [
        {
          "internalType": "string",
          "name": "_name",
          "type": "string"
        },
        {
          "internalType": "string",
          "name": "_creatorNickname",
          "type": "string"
        },
        {
          "internalType": "string",
          "name": "_description",
          "type": "string"
        },
        {
          "internalType": "string",
          "name": "_category",
          "type": "string"
        },
        {
          "internalType": "string",
          "name": "_privacy",
          "type": "string"
        },
        {
          "internalType": "uint256",
          "name": "_maxMembers",
          "type": "uint256"
        },
        {
          "internalType": "uint256",
          "name": "_minimumContribution",
          "type": "uint256"
        },
        {
          "internalType": "string",
          "name": "_contributionFrequency",
          "type": "string"
        }
      ],
      "name": "createGroup",
      "outputs": [
        {
          "internalType": "address",
          "name": "",
          "type": "address"
        }
      ],
      "stateMutability": "payable",
      "type": "function"
    },
    {
      "inputs": [],
      "name": "creationFee",
      "outputs": [
        {
          "internalType": "uint256",
          "name": "",
          "type": "uint256"
        }
      ],
      "stateMutability": "view",
      "type": "function"
    },
    {
      "inputs": [
        {
          "internalType": "address",
          "name": "_groupAddress",
          "type": "address"
        }
      ],
      "name": "deactivateGroup",
      "outputs": [],
      "stateMutability": "nonpayable",
      "type": "function"
    },
    {
      "inputs": [],
      "name": "getAllGroups",
      "outputs": [
        {
          "internalType": "address[]",
          "name": "",
          "type": "address[]"
        }
      ],
      "stateMutability": "view",
      "type": "function"
    },
    {
      "inputs": [
        {
          "internalType": "address",
          "name": "_groupAddress",
          "type": "address"
        }
      ],
      "name": "getGroupInfo",
      "outputs": [
        {
          "components": [
            {
              "internalType": "address",
              "name": "groupAddress",
              "type": "address"
            },
            {
              "internalType": "string",
              "name": "name",
              "type": "string"
            },
            {
              "internalType": "string",
              "name": "description",
              "type": "string"
            },
            {
              "internalType": "string",
              "name": "category",
              "type": "string"
            },
            {
              "internalType": "string",
              "name": "privacy",
              "type": "string"
            },
            {
              "internalType": "address",
              "name": "creator",
              "type": "address"
            },
            {
              "internalType": "uint256",
              "name": "createdAt",
              "type": "uint256"
            },
            {
              "internalType": "uint256",
              "name": "maxMembers",
              "type": "uint256"
            },
            {
              "internalType": "uint256",
              "name": "minimumContribution",
              "type": "uint256"
            },
            {
              "internalType": "string",
              "name": "contributionFrequency",
              "type": "string"
            },
            {
              "internalType": "bool",
              "name": "active",
              "type": "bool"
            }
          ],
          "internalType": "struct ExpenseFactory.GroupInfo",
          "name": "",
          "type": "tuple"
        }
      ],
      "stateMutability": "view",
      "type": "function"
    },
    {
      "inputs": [],
      "name": "getTotalGroupsCount",
      "outputs": [
        {
          "internalType": "uint256",
          "name": "",
          "type": "uint256"
        }
      ],
      "stateMutability": "view",
      "type": "function"
    },
    {
      "inputs": [
        {
          "internalType": "address",
          "name": "_user",
          "type": "address"
        }
      ],
      "name": "getUserGroups",
      "outputs": [
        {
          "internalType": "address[]",
          "name": "",
          "type": "address[]"
        }
      ],
      "stateMutability": "view",
      "type": "function"
    },
    {
      "inputs": [
        {
          "internalType": "address",
          "name": "",
          "type": "address"
        }
      ],
      "name": "groupInfos",
      "outputs": [
        {
          "internalType": "address",
          "name": "groupAddress",
          "type": "address"
        },
        {
          "internalType": "string",
          "name": "name",
          "type": "string"
        },
        {
          "internalType": "string",
          "name": "description",
          "type": "string"
        },
        {
          "internalType": "string",
          "name": "category",
          "type": "string"
        },
        {
          "internalType": "string",
          "name": "privacy",
          "type": "string"
        },
        {
          "internalType": "address",
          "name": "creator",
          "type": "address"
        },
        {
          "internalType": "uint256",
          "name": "createdAt",
          "type": "uint256"
        },
        {
          "internalType": "uint256",
          "name": "maxMembers",
          "type": "uint256"
        },
        {
          "internalType": "uint256",
          "name": "minimumContribution",
          "type": "uint256"
        },
        {
          "internalType": "string",
          "name": "contributionFrequency",
          "type": "string"
        },
        {
          "internalType": "bool",
          "name": "active",
          "type": "bool"
        }
      ],
      "stateMutability": "view",
      "type": "function"
    },
    {
      "inputs": [],
      "name": "maxGroupsPerUser",
      "outputs": [
        {
          "internalType": "uint256",
          "name": "",
          "type": "uint256"
        }
      ],
      "stateMutability": "view",
      "type": "function"
    },
    {
      "inputs": [],
      "name": "owner",
      "outputs": [
        {
          "internalType": "address",
          "name": "",
          "type": "address"
        }
      ],
      "stateMutability": "view",
      "type": "function"
    },
    {
      "inputs": [],
      "name": "renounceOwnership",
      "outputs": [],
      "stateMutability": "nonpayable",
      "type": "function"
    },
    {
      "inputs": [
        {
          "internalType": "uint256",
          "name": "_newFee",
          "type": "uint256"
        }
      ],
      "name": "setCreationFee",
      "outputs": [],
      "stateMutability": "nonpayable",
      "type": "function"
    },
    {
      "inputs": [
        {
          "internalType": "uint256",
          "name": "_newMax",
          "type": "uint256"
        }
      ],
      "name": "setMaxGroupsPerUser",
      "outputs": [],
      "stateMutability": "nonpayable",
      "type": "function"
    },
    {
      "inputs": [
        {
          "internalType": "address",
          "name": "newOwner",
          "type": "address"
        }
      ],
      "name": "transferOwnership",
      "outputs": [],
      "stateMutability": "nonpayable",
      "type": "function"
    },
    {
      "inputs": [],
      "name": "withdrawFees",
      "outputs": [],
      "stateMutability": "nonpayable",
      "type": "function"
    },
    {
      "stateMutability": "payable",
      "type": "receive"
    }
  ],
  "bytecode": "0x6080604052600a600555600060065534801561001a57600080fd5b50338061004157604051631e4fbdf760e01b81526000600482015260240160405180910390fd5b61004a81610054565b50600180556100a4565b600080546001600160a01b038381166001600160a01b0319831681178455604051919092169283917f8be0079c531659141344cd1fd0a4f28419497f9722a3daafe3b4186f6b6457e09190a35050565b615f2c80620000b46000396000f3fe6080604052600436106200010b5760003560e01c80639f9334e41162000095578063dce0b4e41162000060578063dce0b4e414620002ed578063e225f89a1462000305578063e376fa5e146200031c578063f2fde38b146200034157600080fd5b80639f9334e4146200025b578063a5cc1ddd146200027c578063b7d862251462000294578063d83ff6d014620002b957600080fd5b80636ade18ca11620000d65780636ade18ca14620001ac578063715018a614620001ea5780638da5cb5b146200020257806393739a93146200023657600080fd5b806321cd3cae14620001185780633da04e4a1462000148578063476343ee146200016d5780634d928efa146200018757600080fd5b366200011357005b600080fd5b3480156200012557600080fd5b506200013062000366565b6040516200013f919062001ab6565b60405180910390f35b3480156200015557600080fd5b50620001306200016736600462001b22565b62000519565b3480156200017a57600080fd5b50620001856200072b565b005b3480156200019457600080fd5b5062000185620001a636600462001b47565b62000826565b348015620001b957600080fd5b50620001d1620001cb36600462001b22565b62000883565b6040516200013f9b9a9998979695949392919062001ba9565b348015620001f757600080fd5b506200018562000bc2565b3480156200020f57600080fd5b506000546001600160a01b03165b6040516001600160a01b0390911681526020016200013f565b3480156200024357600080fd5b50620001856200025536600462001b22565b62000bd8565b3480156200026857600080fd5b506004545b6040519081526020016200013f565b3480156200028957600080fd5b506200026d60055481565b348015620002a157600080fd5b5062000185620002b336600462001b47565b62000cc2565b348015620002c657600080fd5b50620002de620002d836600462001b22565b62000cd1565b6040516200013f919062001c62565b348015620002fa57600080fd5b506200026d60065481565b6200021d6200031636600462001e2e565b62001123565b3480156200032957600080fd5b50620001856200033b36600462001f4b565b62001800565b3480156200034e57600080fd5b50620001856200036036600462001b22565b620019ba565b60606000805b600454811015620003e757600360006004838154811062000391576200039162001f83565b60009182526020808320909101546001600160a01b031683528201929092526040019020600a015460ff1615620003d25781620003ce8162001faf565b9250505b80620003de8162001faf565b9150506200036c565b5060008167ffffffffffffffff81111562000406576200040662001d83565b60405190808252806020026020018201604052801562000430578160200160208202803683370190505b5090506000805b600454811015620005105760036000600483815481106200045c576200045c62001f83565b60009182526020808320909101546001600160a01b031683528201929092526040019020600a015460ff1615620004fb5760048181548110620004a357620004a362001f83565b6000918252602090912001546001600160a01b03168383620004c58162001faf565b945081518110620004da57620004da62001f83565b60200260200101906001600160a01b031690816001600160a01b0316815250505b80620005078162001faf565b91505062000437565b50909392505050565b6001600160a01b03811660009081526002602090815260408083208054825181850281018501909352808352606094938301828280156200058457602002820191906000526020600020905b81546001600160a01b0316815260019091019060200180831162000565575b505050505090506000805b8251811015620006075760036000848381518110620005b257620005b262001f83565b6020908102919091018101516001600160a01b03168252810191909152604001600020600a015460ff1615620005f25781620005ee8162001faf565b9250505b80620005fe8162001faf565b9150506200058f565b5060008167ffffffffffffffff81111562000626576200062662001d83565b60405190808252806020026020018201604052801562000650578160200160208202803683370190505b5090506000805b84518110156200072057600360008683815181106200067a576200067a62001f83565b6020908102919091018101516001600160a01b03168252810191909152604001600020600a015460ff16156200070b57848181518110620006bf57620006bf62001f83565b6020026020010151838380620006d59062001faf565b945081518110620006ea57620006ea62001f83565b60200260200101906001600160a01b031690816001600160a01b0316815250505b80620007178162001faf565b91505062000657565b509095945050505050565b62000735620019fe565b6200073f62001a2d565b47806200077d5760405162461bcd60e51b81526020600482015260076024820152664e6f206665657360c81b60448201526064015b60405180910390fd5b600080546040516001600160a01b039091169083908381818185875af1925050503d8060008114620007cc576040519150601f19603f3d011682016040523d82523d6000602084013e620007d1565b606091505b5050905080620008185760405162461bcd60e51b815260206004820152601160248201527015da5d1a191c985dd85b0819985a5b1959607a1b604482015260640162000774565b50506200082460018055565b565b62000830620019fe565b60008111801562000842575060648111155b6200087e5760405162461bcd60e51b815260206004820152600b60248201526a092dcecc2d8d2c840dac2f60ab1b604482015260640162000774565b600555565b600360205260009081526040902080546001820180546001600160a01b039092169291620008b19062001fcb565b80601f0160208091040260200160405190810160405280929190818152602001828054620008df9062001fcb565b8015620009305780601f10620009045761010080835404028352916020019162000930565b820191906000526020600020905b8154815290600101906020018083116200091257829003601f168201915b505050505090806002018054620009479062001fcb565b80601f0160208091040260200160405190810160405280929190818152602001828054620009759062001fcb565b8015620009c65780601f106200099a57610100808354040283529160200191620009c6565b820191906000526020600020905b815481529060010190602001808311620009a857829003601f168201915b505050505090806003018054620009dd9062001fcb565b80601f016020809104026020016040519081016040528092919081815260200182805462000a0b9062001fcb565b801562000a5c5780601f1062000a305761010080835404028352916020019162000a5c565b820191906000526020600020905b81548152906001019060200180831162000a3e57829003601f168201915b50505050509080600401805462000a739062001fcb565b80601f016020809104026020016040519081016040528092919081815260200182805462000aa19062001fcb565b801562000af25780601f1062000ac65761010080835404028352916020019162000af2565b820191906000526020600020905b81548152906001019060200180831162000ad457829003601f168201915b505050600584015460068501546007860154600887015460098801805497986001600160a01b0390951697939650919450929162000b309062001fcb565b80601f016020809104026020016040519081016040528092919081815260200182805462000b5e9062001fcb565b801562000baf5780601f1062000b835761010080835404028352916020019162000baf565b820191906000526020600020905b81548152906001019060200180831162000b9157829003601f168201915b505050600a909301549192505060ff168b565b62000bcc620019fe565b62000824600062001a58565b6001600160a01b038181166000908152600360205260409020600501541633148062000c0c5750336001600160a01b038216145b8062000c2257506000546001600160a01b031633145b62000c615760405162461bcd60e51b815260206004820152600e60248201526d139bdd08185d5d1a1bdc9a5e995960921b604482015260640162000774565b6001600160a01b03811660008181526003602052604090819020600a01805460ff19169055517f7631c34004cd3d0f8ee340cd197db67a72dad2fe4fb5d8cdf87e8bed952bbe709062000cb79042815260200190565b60405180910390a250565b62000ccc620019fe565b600655565b62000d4360405180610160016040528060006001600160a01b031681526020016060815260200160608152602001606081526020016060815260200160006001600160a01b03168152602001600081526020016000815260200160008152602001606081526020016000151581525090565b6001600160a01b0382166000908152600360205260409020600a015460ff1662000da15760405162461bcd60e51b815260206004820152600e60248201526d47726f757020696e61637469766560901b604482015260640162000774565b6001600160a01b0380831660009081526003602090815260409182902082516101608101909352805490931682526001830180549293929184019162000de79062001fcb565b80601f016020809104026020016040519081016040528092919081815260200182805462000e159062001fcb565b801562000e665780601f1062000e3a5761010080835404028352916020019162000e66565b820191906000526020600020905b81548152906001019060200180831162000e4857829003601f168201915b5050505050815260200160028201805462000e819062001fcb565b80601f016020809104026020016040519081016040528092919081815260200182805462000eaf9062001fcb565b801562000f005780601f1062000ed45761010080835404028352916020019162000f00565b820191906000526020600020905b81548152906001019060200180831162000ee257829003601f168201915b5050505050815260200160038201805462000f1b9062001fcb565b80601f016020809104026020016040519081016040528092919081815260200182805462000f499062001fcb565b801562000f9a5780601f1062000f6e5761010080835404028352916020019162000f9a565b820191906000526020600020905b81548152906001019060200180831162000f7c57829003601f168201915b5050505050815260200160048201805462000fb59062001fcb565b80601f016020809104026020016040519081016040528092919081815260200182805462000fe39062001fcb565b8015620010345780601f10620010085761010080835404028352916020019162001034565b820191906000526020600020905b8154815290600101906020018083116200101657829003601f168201915b505050918352505060058201546001600160a01b0316602082015260068201546040820152600782015460608201526008820154608082015260098201805460a090920191620010849062001fcb565b80601f0160208091040260200160405190810160405280929190818152602001828054620010b29062001fcb565b8015620011035780601f10620010d75761010080835404028352916020019162001103565b820191906000526020600020905b815481529060010190602001808311620010e557829003601f168201915b5050509183525050600a919091015460ff16151560209091015292915050565b60006200112f62001a2d565b600089511180156200114357506064895111155b620011805760405162461bcd60e51b815260206004820152600c60248201526b496e76616c6964206e616d6560a01b604482015260640162000774565b600088511180156200119457506020885111155b620011d55760405162461bcd60e51b815260206004820152601060248201526f496e76616c6964206e69636b6e616d6560801b604482015260640162000774565b6101f487511115620012215760405162461bcd60e51b81526020600482015260146024820152734465736372697074696f6e20746f6f206c6f6e6760601b604482015260640162000774565b600086511180156200123557506032865111155b620012765760405162461bcd60e51b815260206004820152601060248201526f496e76616c69642063617465676f727960801b604482015260640162000774565b6040805180820190915260068152657075626c696360d01b6020918201528551908601207f3c0c3a2537aaf75b853bbf2b595e872d3db0359b7e792ebd8907fb017c3b71a214806200130b57506040805180820190915260078152667072697661746560c81b6020918201528551908601207fba0b8d7971d83a895b04f69bb35eb4161849cc1e4886c0eec88858e4667ebaae145b806200135e575060408051808201909152600b81526a696e766974652d6f6e6c7960a81b6020918201528551908601207fe00ae9a4bfa591e914e5d68405e97badb49d834df38cd936e855c367d14bd678145b620013ac5760405162461bcd60e51b815260206004820152601760248201527f496e76616c696420707269766163792073657474696e67000000000000000000604482015260640162000774565b600084118015620013bf57506103e88411155b620014035760405162461bcd60e51b8152602060048201526013602482015272496e76616c6964206d6178206d656d6265727360681b604482015260640162000774565b6006543410156200144a5760405162461bcd60e51b815260206004820152601060248201526f496e73756666696369656e742066656560801b604482015260640162000774565b6005543360009081526002602052604090205410620014a15760405162461bcd60e51b815260206004820152601260248201527113585e0819dc9bdd5c1cc81c995858da195960721b604482015260640162000774565b600089338a604051620014b49062001aa8565b620014c29392919062002007565b604051809103906000f080158015620014df573d6000803e3d6000fd5b5090506000819050604051806101600160405280826001600160a01b031681526020018c81526020018a8152602001898152602001888152602001336001600160a01b031681526020014281526020018781526020018681526020018581526020016001151581525060036000836001600160a01b03166001600160a01b0316815260200190815260200160002060008201518160000160006101000a8154816001600160a01b0302191690836001600160a01b031602179055506020820151816001019081620015b191906200209c565b5060408201516002820190620015c890826200209c565b5060608201516003820190620015df90826200209c565b5060808201516004820190620015f690826200209c565b5060a08201516005820180546001600160a01b0319166001600160a01b0390921691909117905560c0820151600682015560e08201516007820155610100820151600882015561012082015160098201906200165390826200209c565b506101409190910151600a909101805460ff1916911515919091179055336000908152600260209081526040822080546001818101835591845291832090910180546001600160a01b03199081166001600160a01b0386169081179092556004805493840181559093527f8a35acfbc15ff81a39ae7d344fd709f28e8600b4aa8c65c6b64bfe7fe36bd19b90910180549092161790556006543411156200179057600654600090339062001708903462002169565b604051600081818185875af1925050503d806000811462001746576040519150601f19603f3d011682016040523d82523d6000602084013e6200174b565b606091505b50509050806200178e5760405162461bcd60e51b815260206004820152600d60248201526c1499599d5b990819985a5b1959609a1b604482015260640162000774565b505b336001600160a01b0316816001600160a01b03167fa9aff8c3e7a03661f372ce9ca2f454d363a85bfaa85226828d04997950f3811e8d8c8c8c8c42604051620017df9695949392919062002185565b60405180910390a3915050620017f460018055565b98975050505050505050565b336001600160a01b038216146200185a5760405162461bcd60e51b815260206004820152601860248201527f4f6e6c792067726f75702063616e206164642075736572730000000000000000604482015260640162000774565b6001600160a01b0381166000908152600360205260409020600a015460ff16620018b85760405162461bcd60e51b815260206004820152600e60248201526d47726f757020696e61637469766560901b604482015260640162000774565b6001600160a01b0382166000908152600260205260408120905b81548110156200193157826001600160a01b0316828281548110620018fb57620018fb62001f83565b6000918252602090912001546001600160a01b0316036200191c5750505050565b80620019288162001faf565b915050620018d2565b506005548154106200197b5760405162461bcd60e51b815260206004820152601260248201527113585e0819dc9bdd5c1cc81c995858da195960721b604482015260640162000774565b506001600160a01b0391821660009081526002602090815260408220805460018101825590835291200180546001600160a01b03191691909216179055565b620019c4620019fe565b6001600160a01b038116620019f057604051631e4fbdf760e01b81526000600482015260240162000774565b620019fb8162001a58565b50565b6000546001600160a01b03163314620008245760405163118cdaa760e01b815233600482015260240162000774565b60026001540362001a5157604051633ee5aeb560e01b815260040160405180910390fd5b6002600155565b600080546001600160a01b038381166001600160a01b0319831681178455604051919092169283917f8be0079c531659141344cd1fd0a4f28419497f9722a3daafe3b4186f6b6457e09190a35050565b613d0680620021f183390190565b6020808252825182820181905260009190848201906040850190845b8181101562001af95783516001600160a01b03168352928401929184019160010162001ad2565b50909695505050505050565b80356001600160a01b038116811462001b1d57600080fd5b919050565b60006020828403121562001b3557600080fd5b62001b408262001b05565b9392505050565b60006020828403121562001b5a57600080fd5b5035919050565b6000815180845260005b8181101562001b895760208185018101518683018201520162001b6b565b506000602082860101526020601f19601f83011685010191505092915050565b6001600160a01b038c811682526101606020830181905260009162001bd18483018f62001b61565b9150838203604085015262001be7828e62001b61565b9150838203606085015262001bfd828d62001b61565b9150838203608085015262001c13828c62001b61565b9150808a1660a0850152508760c08401528660e08401528561010084015282810361012084015262001c46818662001b61565b9150508215156101408301529c9b505050505050505050505050565b6020815262001c7d6020820183516001600160a01b03169052565b6000602083015161016080604085015262001c9d61018085018362001b61565b91506040850151601f198086850301606087015262001cbd848362001b61565b9350606087015191508086850301608087015262001cdc848362001b61565b935060808701519150808685030160a087015262001cfb848362001b61565b935060a0870151915062001d1a60c08701836001600160a01b03169052565b60c087015160e087015260e0870151915061010082818801528088015192505061012082818801528088015192505061014081878603018188015262001d61858462001b61565b9450808801519250505062001d798286018215159052565b5090949350505050565b634e487b7160e01b600052604160045260246000fd5b600082601f83011262001dab57600080fd5b813567ffffffffffffffff8082111562001dc95762001dc962001d83565b604051601f8301601f19908116603f0116810190828211818310171562001df45762001df462001d83565b8160405283815286602085880101111562001e0e57600080fd5b836020870160208301376000602085830101528094505050505092915050565b600080600080600080600080610100898b03121562001e4c57600080fd5b883567ffffffffffffffff8082111562001e6557600080fd5b62001e738c838d0162001d99565b995060208b013591508082111562001e8a57600080fd5b62001e988c838d0162001d99565b985060408b013591508082111562001eaf57600080fd5b62001ebd8c838d0162001d99565b975060608b013591508082111562001ed457600080fd5b62001ee28c838d0162001d99565b965060808b013591508082111562001ef957600080fd5b62001f078c838d0162001d99565b955060a08b0135945060c08b0135935060e08b013591508082111562001f2c57600080fd5b5062001f3b8b828c0162001d99565b9150509295985092959890939650565b6000806040838503121562001f5f57600080fd5b62001f6a8362001b05565b915062001f7a6020840162001b05565b90509250929050565b634e487b7160e01b600052603260045260246000fd5b634e487b7160e01b600052601160045260246000fd5b60006001820162001fc45762001fc462001f99565b5060010190565b600181811c9082168062001fe057607f821691505b6020821081036200200157634e487b7160e01b600052602260045260246000fd5b50919050565b6060815260006200201c606083018662001b61565b6001600160a01b038516602084015282810360408401526200203f818562001b61565b9695505050505050565b601f8211156200209757600081815260208120601f850160051c81016020861015620020725750805b601f850160051c820191505b8181101562002093578281556001016200207e565b5050505b505050565b815167ffffffffffffffff811115620020b957620020b962001d83565b620020d181620020ca845462001fcb565b8462002049565b602080601f831160018114620021095760008415620020f05750858301515b600019600386901b1c1916600185901b17855562002093565b600085815260208120601f198616915b828110156200213a5788860151825594840194600190910190840162002119565b5085821015620021595787850151600019600388901b60f8161c191681555b5050505050600190811b01905550565b818103818111156200217f576200217f62001f99565b92915050565b60c0815260006200219a60c083018962001b61565b8281036020840152620021ae818962001b61565b90508281036040840152620021c4818862001b61565b90508281036060840152620021da818762001b61565b6080840195909552505060a0015294935050505056fe60a06040523480156200001157600080fd5b5060405162003d0638038062003d068339810160408190526200003491620004c4565b6001600055816001600160a01b0381166200006a57604051631e4fbdf760e01b8152600060048201526024015b60405180910390fd5b62000075816200014e565b506000835111620000c95760405162461bcd60e51b815260206004820152601360248201527f47726f7570206e616d6520726571756972656400000000000000000000000000604482015260640162000061565b60008151116200011c5760405162461bcd60e51b815260206004820152601960248201527f43726561746f72206e69636b6e616d6520726571756972656400000000000000604482015260640162000061565b60026200012a8482620005de565b5060016003819055600b5533608052620001458282620001a0565b505050620006e7565b600180546001600160a01b038381166001600160a01b0319831681179093556040519116919082907f8be0079c531659141344cd1fd0a4f28419497f9722a3daafe3b4186f6b6457e090600090a35050565b6001600160a01b038216620001ea5760405162461bcd60e51b815260206004820152600f60248201526e496e76616c6964206164647265737360881b604482015260640162000061565b6001600160a01b0382166000908152600460208190526040909120015460ff1615620002595760405162461bcd60e51b815260206004820152601560248201527f4d656d62657220616c7265616479206578697374730000000000000000000000604482015260640162000061565b600081511180156200026d57506020815111155b620002bb5760405162461bcd60e51b815260206004820152601760248201527f496e76616c6964206e69636b6e616d65206c656e677468000000000000000000604482015260640162000061565b6040805160c0810182526001600160a01b0384811680835260208084018681526000858701819052606086018190526001608087018190524260a08801529381526004909252949020835181546001600160a01b031916931692909217825592519192909190820190620003309082620005de565b50604082810151600283015560608301516003830155608083015160048301805460ff191691151591909117905560a090920151600590910155600880546001810182556000919091527ff3f7a9fe364faab93b216da50a3214154f22a0a2b415b23a84c8169e8b636ee30180546001600160a01b0319166001600160a01b03851690811790915590517fac4f9610b174640b0a902ce555faa384cc9c9d291750f76e476f26f97bd079b490620003eb9084904290620006aa565b60405180910390a25050565b634e487b7160e01b600052604160045260246000fd5b60005b838110156200042a57818101518382015260200162000410565b50506000910152565b600082601f8301126200044557600080fd5b81516001600160401b0380821115620004625762000462620003f7565b604051601f8301601f19908116603f011681019082821181831017156200048d576200048d620003f7565b81604052838152866020858801011115620004a757600080fd5b620004ba8460208301602089016200040d565b9695505050505050565b600080600060608486031215620004da57600080fd5b83516001600160401b0380821115620004f257600080fd5b620005008783880162000433565b602087015190955091506001600160a01b03821682146200052057600080fd5b6040860151919350808211156200053657600080fd5b50620005458682870162000433565b9150509250925092565b600181811c908216806200056457607f821691505b6020821081036200058557634e487b7160e01b600052602260045260246000fd5b50919050565b601f821115620005d957600081815260208120601f850160051c81016020861015620005b45750805b601f850160051c820191505b81811015620005d557828155600101620005c0565b5050505b505050565b81516001600160401b03811115620005fa57620005fa620003f7565b62000612816200060b84546200054f565b846200058b565b602080601f8311600181146200064a5760008415620006315750858301515b600019600386901b1c1916600185901b178555620005d5565b600085815260208120601f198616915b828110156200067b578886015182559484019460019091019084016200065a565b50858210156200069a5787850151600019600388901b60f8161c191681555b5050505050600190811b01905550565b6040815260008351806040840152620006cb8160608501602088016200040d565b602083019390935250601f91909101601f191601606001919050565b6080516135fc6200070a6000396000818161070e0152611e9001526135fc6000f3fe6080604052600436106101dc5760003560e01c80638bd1e67811610102578063c23f001f11610095578063eb48571f11610064578063eb48571f1461075a578063ebf301e81461077a578063f2fde38b1461079a578063f8b2cb4f146107ba57600080fd5b8063c23f001f146106c4578063c45a0155146106fc578063db2e21bc14610730578063ea0e35b11461074557600080fd5b8063af4afe0a116100d1578063af4afe0a1461063c578063b307fc6d1461066f578063b8bee3001461068f578063c127c247146106a457600080fd5b80638bd1e678146105a95780638da5cb5b146105d7578063ab26c7c614610609578063adf298c81461062957600080fd5b80635c975abb1161017a578063715018a611610149578063715018a614610517578063735e5db61461052c578063783cec80146105595780637e661bc81461057b57600080fd5b80635c975abb1461044f5780635f1231ea1461047957806362cc0f39146104a6578063687b6393146104c657600080fd5b80630b1ca49a116101b65780630b1ca49a1461037a578063481306eb1461039a5780634c582380146103cf5780635768ec681461043a57600080fd5b806307fd5ce81461029f57806308ae4b0c146102b657806308df7dc8146102f157600080fd5b3661029a57336000908152600460208190526040909120015460ff168061020d57506001546001600160a01b031633145b61025e5760405162461bcd60e51b815260206004820152601960248201527f4f6e6c79206d656d626572732063616e2073656e64204554480000000000000060448201526064015b60405180910390fd5b6040805134815242602082015233917f7dd768b8b37911c0bb413d9cf56fcb57b286f5def4c57d475c8abdd6737b7e1e910160405180910390a2005b600080fd5b3480156102ab57600080fd5b506102b46107da565b005b3480156102c257600080fd5b506102d66102d1366004612d4b565b610820565b6040516102e896959493929190612db3565b60405180910390f35b3480156102fd57600080fd5b5061034761030c366004612dfc565b600760205260009081526040902080546001820154600283015460038401546004909401546001600160a01b03938416949390921692909185565b604080516001600160a01b039687168152959094166020860152928401919091526060830152608082015260a0016102e8565b34801561038657600080fd5b506102b4610395366004612d4b565b6108ee565b3480156103a657600080fd5b506103af610bde565b6040805194855260208501939093529183015260608201526080016102e8565b3480156103db57600080fd5b506103ef6103ea366004612dfc565b610c61565b6040516102e8919081516001600160a01b0390811682526020808401519091169082015260408083015190820152606080830151908201526080918201519181019190915260a00190565b34801561044657600080fd5b506102b4610d3c565b34801561045b57600080fd5b50600154600160a01b900460ff1660405190151581526020016102e8565b34801561048557600080fd5b50610499610494366004612d4b565b610d7c565b6040516102e89190612e15565b3480156104b257600080fd5b506102b46104c1366004612f30565b610f18565b3480156104d257600080fd5b506105096104e1366004612d4b565b3360009081526006602090815260408083206001600160a01b03949094168352929052205490565b6040519081526020016102e8565b34801561052357600080fd5b506102b4611166565b34801561053857600080fd5b5061054c610547366004612dfc565b61117a565b6040516102e89190613098565b34801561056557600080fd5b5061056e6113b0565b6040516102e891906130ab565b34801561058757600080fd5b5061059b6105963660046130be565b61143e565b6040516102e89291906130e0565b3480156105b557600080fd5b506105c96105c43660046130be565b61174c565b6040516102e8929190613149565b3480156105e357600080fd5b506001546001600160a01b03165b6040516001600160a01b0390911681526020016102e8565b34801561061557600080fd5b50610509610624366004612dfc565b611861565b6102b4610637366004612d4b565b611882565b34801561064857600080fd5b5061065c610657366004612dfc565b611ce2565b6040516102e8979695949392919061316b565b34801561067b57600080fd5b506105f161068a366004612dfc565b611db3565b34801561069b57600080fd5b50610509601481565b3480156106b057600080fd5b506102b46106bf3660046131b7565b611ddd565b3480156106d057600080fd5b506105096106df3660046131ef565b600660209081526000928352604080842090915290825290205481565b34801561070857600080fd5b506105f17f000000000000000000000000000000000000000000000000000000000000000081565b34801561073c57600080fd5b506102b4611ef0565b34801561075157600080fd5b50610509603281565b34801561076657600080fd5b50610509610775366004613222565b61205e565b34801561078657600080fd5b50610509610795366004612dfc565b61279d565b3480156107a657600080fd5b506102b46107b5366004612d4b565b6127ad565b3480156107c657600080fd5b506105096107d5366004612d4b565b6127e8565b6107e2612879565b6107ea6128a6565b6040514281527fb5a81006f0fbbe8840c33bd9e50f9aaf88f69b1cd74a626748ba871ddf982d32906020015b60405180910390a1565b600460205260009081526040902080546001820180546001600160a01b03909216929161084c90613302565b80601f016020809104026020016040519081016040528092919081815260200182805461087890613302565b80156108c55780601f1061089a576101008083540402835291602001916108c5565b820191906000526020600020905b8154815290600101906020018083116108a857829003601f168201915b5050506002840154600385015460048601546005909601549495919490935060ff909116915086565b6108f6612879565b806001600160a01b03811661091d5760405162461bcd60e51b815260040161025590613336565b6001600160a01b0381166000908152600460208190526040909120015460ff1661097d5760405162461bcd60e51b81526020600482015260116024820152704d656d626572206e6f742061637469766560781b6044820152606401610255565b6001546001600160a01b03166001600160a01b0316826001600160a01b0316036109df5760405162461bcd60e51b815260206004820152601360248201527221b0b73737ba103932b6b7bb329037bbb732b960691b6044820152606401610255565b6001600160a01b038216600090815260046020526040902060020154158015610a2157506001600160a01b038216600090815260046020526040902060030154155b610a6d5760405162461bcd60e51b815260206004820152601f60248201527f4d656d62657220686173206f75747374616e64696e672062616c616e636573006044820152606401610255565b6001600160a01b0382166000908152600460208190526040822001805460ff191690555b600854811015610b9657826001600160a01b031660088281548110610ab857610ab861335f565b6000918252602090912001546001600160a01b031603610b845760088054610ae29060019061338b565b81548110610af257610af261335f565b600091825260209091200154600880546001600160a01b039092169183908110610b1e57610b1e61335f565b9060005260206000200160006101000a8154816001600160a01b0302191690836001600160a01b031602179055506008805480610b5d57610b5d61339e565b600082815260209020810160001990810180546001600160a01b0319169055019055610b96565b80610b8e816133b4565b915050610a91565b50816001600160a01b03167f3ac963493df564de734d98633f1145d21512e282ba4c02d3c1011119bf7f286242604051610bd291815260200190565b60405180910390a25050565b600854600954600b546000908190610bf89060019061338b565b905060005b600954811015610c5a576005600060098381548110610c1e57610c1e61335f565b906000526020600020015481526020019081526020016000206002015483610c4691906133cd565b925080610c52816133b4565b915050610bfd565b5090919293565b6040805160a081018252600080825260208201819052918101829052606081018290526080810191909152600082118015610c9d5750600b5482105b610ce15760405162461bcd60e51b8152602060048201526015602482015274125b9d985b1a59081cd95d1d1b195b595b9d081251605a1b6044820152606401610255565b50600090815260076020908152604091829020825160a08101845281546001600160a01b0390811682526001830154169281019290925260028101549282019290925260038201546060820152600490910154608082015290565b610d44612879565b610d4c6128f6565b6040514281527fb1d2425e73d9a7882dc53cebc5168b37f785c0b8548a07cc190ad6ebdb53aba290602001610816565b610dc06040518060c0016040528060006001600160a01b03168152602001606081526020016000815260200160008152602001600015158152602001600081525090565b6001600160a01b0382166000908152600460208190526040909120015460ff16610e1f5760405162461bcd60e51b815260206004820152601060248201526f13595b58995c881b9bdd08199bdd5b9960821b6044820152606401610255565b6001600160a01b03808316600090815260046020908152604091829020825160c081019093528054909316825260018301805492939291840191610e6290613302565b80601f0160208091040260200160405190810160405280929190818152602001828054610e8e90613302565b8015610edb5780601f10610eb057610100808354040283529160200191610edb565b820191906000526020600020905b815481529060010190602001808311610ebe57829003601f168201915b50505091835250506002820154602082015260038201546040820152600482015460ff161515606082015260059091015460809091015292915050565b81600081118015610f2a575060035481105b610f6b5760405162461bcd60e51b8152602060048201526012602482015271125b9d985b1a5908195e1c195b9cd948125160721b6044820152606401610255565b336000908152600460208190526040909120015460ff16610fc35760405162461bcd60e51b81526020600482015260126024820152712737ba10309033b937bab81036b2b6b132b960711b6044820152606401610255565b600154600160a01b900460ff1615610fed5760405162461bcd60e51b8152600401610255906133e0565b6000838152600560205260409020600301546001600160a01b031633146110565760405162461bcd60e51b815260206004820152601f60248201527f4f6e6c7920657870656e73652063726561746f722063616e20757064617465006044820152606401610255565b60008381526005602052604090206006015460ff16156110b85760405162461bcd60e51b815260206004820152601d60248201527f43616e6e6f742075706461746520736574746c656420657870656e73650000006044820152606401610255565b600082511180156110cb575060c8825111155b61110d5760405162461bcd60e51b815260206004820152601360248201527224b73b30b634b2103232b9b1b934b83a34b7b760691b6044820152606401610255565b60008381526005602052604090206001016111288382613457565b50827f83047016ddfe1d662751127a42d4ea02177f06a1751b37ffb62b044d37e038df8360405161115991906130ab565b60405180910390a2505050565b61116e612879565b6111786000612939565b565b611182612c20565b81600081118015611194575060035481105b6111d55760405162461bcd60e51b8152602060048201526012602482015271125b9d985b1a5908195e1c195b9cd948125160721b6044820152606401610255565b60056000848152602001908152602001600020604051806101200160405290816000820154815260200160018201805461120e90613302565b80601f016020809104026020016040519081016040528092919081815260200182805461123a90613302565b80156112875780601f1061125c57610100808354040283529160200191611287565b820191906000526020600020905b81548152906001019060200180831161126a57829003601f168201915b50505050508152602001600282015481526020016003820160009054906101000a90046001600160a01b03166001600160a01b03166001600160a01b031681526020016004820180548060200260200160405190810160405280929190818152602001828054801561132257602002820191906000526020600020905b81546001600160a01b03168152600190910190602001808311611304575b505050505081526020016005820180548060200260200160405190810160405280929190818152602001828054801561137a57602002820191906000526020600020905b815481526020019060010190808311611366575b5050509183525050600682015460ff16151560208201526007820154604082015260089091015460609091015291505b50919050565b600280546113bd90613302565b80601f01602080910402602001604051908101604052809291908181526020018280546113e990613302565b80156114365780601f1061140b57610100808354040283529160200191611436565b820191906000526020600020905b81548152906001019060200180831161141957829003601f168201915b505050505081565b60095460609060009080851061148957604080516000808252602082019092529061147f565b61146c612c20565b8152602001906001900390816114645790505b5092509050611745565b600061149585876133cd565b9050818111156114a25750805b60006114ae878361338b565b905060008167ffffffffffffffff8111156114cb576114cb612e79565b60405190808252806020026020018201604052801561150457816020015b6114f1612c20565b8152602001906001900390816114e95790505b50905060005b8281101561173c57600560006009611522848d6133cd565b815481106115325761153261335f565b90600052602060002001548152602001908152602001600020604051806101200160405290816000820154815260200160018201805461157190613302565b80601f016020809104026020016040519081016040528092919081815260200182805461159d90613302565b80156115ea5780601f106115bf576101008083540402835291602001916115ea565b820191906000526020600020905b8154815290600101906020018083116115cd57829003601f168201915b50505050508152602001600282015481526020016003820160009054906101000a90046001600160a01b03166001600160a01b03166001600160a01b031681526020016004820180548060200260200160405190810160405280929190818152602001828054801561168557602002820191906000526020600020905b81546001600160a01b03168152600190910190602001808311611667575b50505050508152602001600582018054806020026020016040519081016040528092919081815260200182805480156116dd57602002820191906000526020600020905b8154815260200190600101908083116116c9575b5050509183525050600682015460ff161515602082015260078201546040820152600890910154606090910152825183908390811061171e5761171e61335f565b60200260200101819052508080611734906133b4565b91505061150a565b50945091925050505b9250929050565b60085460609060009080851061177257604080516000808252602082019092529061147f565b600061177e85876133cd565b90508181111561178b5750805b6000611797878361338b565b905060008167ffffffffffffffff8111156117b4576117b4612e79565b6040519080825280602002602001820160405280156117dd578160200160208202803683370190505b50905060005b8281101561173c5760086117f7828b6133cd565b815481106118075761180761335f565b9060005260206000200160009054906101000a90046001600160a01b03168282815181106118375761183761335f565b6001600160a01b039092166020928302919091019091015280611859816133b4565b9150506117e3565b6009818154811061187157600080fd5b600091825260209091200154905081565b61188a61298b565b806001600160a01b0381166118b15760405162461bcd60e51b815260040161025590613336565b6001600160a01b0381166000908152600460208190526040909120015460ff166119115760405162461bcd60e51b81526020600482015260116024820152704d656d626572206e6f742061637469766560781b6044820152606401610255565b600154600160a01b900460ff161561193b5760405162461bcd60e51b8152600401610255906133e0565b3360009081526006602090815260408083206001600160a01b0386168452909152902054806119a05760405162461bcd60e51b81526020600482015260116024820152704e6f206465627420746f20736574746c6560781b6044820152606401610255565b803410156119e75760405162461bcd60e51b8152602060048201526014602482015273125b9cdd59999a58da595b9d081c185e5b595b9d60621b6044820152606401610255565b3360008181526006602090815260408083206001600160a01b03881684528252808320839055928252600490529081206002018054839290611a2a90849061338b565b90915550506001600160a01b03831660009081526004602052604081206003018054839290611a5a90849061338b565b9091555050600b805460009182611a70836133b4565b9190505590506040518060a00160405280336001600160a01b03168152602001856001600160a01b0316815260200183815260200142815260200142338786604051602001611af09493929190938452606092831b6bffffffffffffffffffffffff1990811660208601529190921b166034830152604882015260680190565b60408051808303601f190181529181528151602092830120909252600084815260078252828120845181546001600160a01b03199081166001600160a01b0392831617835593860151600183018054909516908216179093558484015160028201556060850151600382015560809094015160049094019390935590519086169084908381818185875af1925050503d8060008114611bab576040519150601f19603f3d011682016040523d82523d6000602084013e611bb0565b606091505b5050905080611bf25760405162461bcd60e51b815260206004820152600e60248201526d14185e5b595b9d0819985a5b195960921b6044820152606401610255565b82341115611c8b57600033611c07853461338b565b604051600081818185875af1925050503d8060008114611c43576040519150601f19603f3d011682016040523d82523d6000602084013e611c48565b606091505b5050905080611c895760405162461bcd60e51b815260206004820152600d60248201526c1499599d5b990819985a5b1959609a1b6044820152606401610255565b505b60408051848152602081018490526001600160a01b0387169133917f31bebd4f9e31f2efcbdd89389da31be464dfc71a4dc6b5eae9c4e3a11b4cc106910160405180910390a350505050611cdf6001600055565b50565b60056020526000908152604090208054600182018054919291611d0490613302565b80601f0160208091040260200160405190810160405280929190818152602001828054611d3090613302565b8015611d7d5780601f10611d5257610100808354040283529160200191611d7d565b820191906000526020600020905b815481529060010190602001808311611d6057829003601f168201915b5050506002840154600385015460068601546007870154600890970154959692956001600160a01b03909216945060ff16925087565b60088181548110611dc357600080fd5b6000918252602090912001546001600160a01b0316905081565b611de5612879565b600154600160a01b900460ff1615611e0f5760405162461bcd60e51b8152600401610255906133e0565b600854603211611e615760405162461bcd60e51b815260206004820152601760248201527f4d6178696d756d206d656d6265727320726561636865640000000000000000006044820152606401610255565b611e6b82826129b5565b6040516371bb7d2f60e11b81526001600160a01b0383811660048301523060248301527f0000000000000000000000000000000000000000000000000000000000000000169063e376fa5e90604401600060405180830381600087803b158015611ed457600080fd5b505af1158015611ee8573d6000803e3d6000fd5b505050505050565b611ef8612879565b600154600160a01b900460ff16611f615760405162461bcd60e51b815260206004820152602760248201527f4d7573742062652070617573656420666f7220656d657267656e6379207769746044820152661a191c985dd85b60ca1b6064820152608401610255565b4780611fa65760405162461bcd60e51b81526020600482015260146024820152734e6f2066756e647320746f20776974686472617760601b6044820152606401610255565b6000611fba6001546001600160a01b031690565b6001600160a01b03168260405160006040518083038185875af1925050503d8060008114612004576040519150601f19603f3d011682016040523d82523d6000602084013e612009565b606091505b505090508061205a5760405162461bcd60e51b815260206004820152601b60248201527f456d657267656e6379207769746864726177616c206661696c656400000000006044820152606401610255565b5050565b3360009081526004602081905260408220015460ff166120b55760405162461bcd60e51b81526020600482015260126024820152712737ba10309033b937bab81036b2b6b132b960711b6044820152606401610255565b600154600160a01b900460ff16156120df5760405162461bcd60e51b8152600401610255906133e0565b6000841161212f5760405162461bcd60e51b815260206004820152601760248201527f416d6f756e74206d75737420626520706f7369746976650000000000000000006044820152606401610255565b6000835111801561214257506014835111155b61218e5760405162461bcd60e51b815260206004820152601a60248201527f496e76616c6964207061727469636970616e747320636f756e740000000000006044820152606401610255565b600085511180156121a1575060c8855111155b6121ed5760405162461bcd60e51b815260206004820152601a60248201527f496e76616c6964206465736372697074696f6e206c656e6774680000000000006044820152606401610255565b60005b8351811015612344576004600085838151811061220f5761220f61335f565b6020908102919091018101516001600160a01b031682528101919091526040016000206004015460ff1661227b5760405162461bcd60e51b8152602060048201526013602482015272125b9d985b1a59081c185c9d1a58da5c185b9d606a1b6044820152606401610255565b60006122888260016133cd565b90505b8451811015612331578481815181106122a6576122a661335f565b60200260200101516001600160a01b03168583815181106122c9576122c961335f565b60200260200101516001600160a01b03160361231f5760405162461bcd60e51b8152602060048201526015602482015274111d5c1b1a58d85d19481c185c9d1a58da5c185b9d605a1b6044820152606401610255565b80612329816133b4565b91505061228b565b508061233c816133b4565b9150506121f0565b506000835185612354919061352d565b905060008451866123659190613541565b90506000855167ffffffffffffffff81111561238357612383612e79565b6040519080825280602002602001820160405280156123ac578160200160208202803683370190505b5090506000805b875181101561244857848382815181106123cf576123cf61335f565b6020026020010181815250508381101561240f5760018382815181106123f7576123f761335f565b6020026020010181815161240b91906133cd565b9052505b8281815181106124215761242161335f565b60200260200101518261243491906133cd565b915080612440816133b4565b9150506123b3565b5087811461245857612458613555565b6003805460009182612469836133b4565b90915550604080516101208101825282815260208082018e81528284018e9052336060840152608083018d905260a08301889052600060c084018190524260e085015261010084018d905285815260059092529290208151815591519293509160018201906124d89082613457565b506040820151600282015560608201516003820180546001600160a01b0319166001600160a01b0390921691909117905560808201518051612524916004840191602090910190612c7a565b5060a08201518051612540916005840191602090910190612cdf565b5060c082015160068201805460ff191691151591909117905560e08201516007820155610100909101516008909101556009805460018101825560009182527f6e1540171b6c0c960b71a7020d9f60077f6af931a8bbf590da0223dacf75c7af018290555b885181101561274b57336001600160a01b03168982815181106125ca576125ca61335f565b60200260200101516001600160a01b031614612739578381815181106125f2576125f261335f565b6020026020010151600660008b84815181106126105761261061335f565b60200260200101516001600160a01b03166001600160a01b031681526020019081526020016000206000336001600160a01b03166001600160a01b03168152602001908152602001600020600082825461266a91906133cd565b925050819055508381815181106126835761268361335f565b6020026020010151600460008b84815181106126a1576126a161335f565b60200260200101516001600160a01b03166001600160a01b0316815260200190815260200160002060020160008282546126db91906133cd565b925050819055508381815181106126f4576126f461335f565b602002602001015160046000336001600160a01b03166001600160a01b03168152602001908152602001600020600301600082825461273391906133cd565b90915550505b80612743816133b4565b9150506125a5565b50336001600160a01b0316817fdb0debf4b1618503c6e2e44996a5479eee196e1a5959982dc7e814d15674817a8b8d60405161278892919061356b565b60405180910390a39998505050505050505050565b600a818154811061187157600080fd5b6127b5612879565b6001600160a01b0381166127df57604051631e4fbdf760e01b815260006004820152602401610255565b611cdf81612939565b6001600160a01b03811660009081526004602081905260408220015460ff166128465760405162461bcd60e51b815260206004820152601060248201526f13595b58995c881b9bdd08199bdd5b9960821b6044820152606401610255565b6001600160a01b03821660009081526004602052604090206002810154600390910154612873919061358c565b92915050565b6001546001600160a01b031633146111785760405163118cdaa760e01b8152336004820152602401610255565b6128ae612bcb565b6001805460ff60a01b191690557f5db9ee0a495bf2e6ff9c91a7834c1ba4fdd244a5e8aa4e537bd38aeae4b073aa335b6040516001600160a01b039091168152602001610816565b6128fe612bf5565b6001805460ff60a01b1916600160a01b1790557f62e78cea01bee320cd4e420270b5ea74000d11b0c9f74754ebdbfc544b05a2586128de3390565b600180546001600160a01b038381166001600160a01b0319831681179093556040519116919082907f8be0079c531659141344cd1fd0a4f28419497f9722a3daafe3b4186f6b6457e090600090a35050565b6002600054036129ae57604051633ee5aeb560e01b815260040160405180910390fd5b6002600055565b6001600160a01b0382166129db5760405162461bcd60e51b815260040161025590613336565b6001600160a01b0382166000908152600460208190526040909120015460ff1615612a405760405162461bcd60e51b81526020600482015260156024820152744d656d62657220616c72656164792065786973747360581b6044820152606401610255565b60008151118015612a5357506020815111155b612a9f5760405162461bcd60e51b815260206004820152601760248201527f496e76616c6964206e69636b6e616d65206c656e6774680000000000000000006044820152606401610255565b6040805160c0810182526001600160a01b0384811680835260208084018681526000858701819052606086018190526001608087018190524260a08801529381526004909252949020835181546001600160a01b031916931692909217825592519192909190820190612b129082613457565b50604082810151600283015560608301516003830155608083015160048301805460ff191691151591909117905560a090920151600590910155600880546001810182556000919091527ff3f7a9fe364faab93b216da50a3214154f22a0a2b415b23a84c8169e8b636ee30180546001600160a01b0319166001600160a01b03851690811790915590517fac4f9610b174640b0a902ce555faa384cc9c9d291750f76e476f26f97bd079b490610bd290849042906135b3565b600154600160a01b900460ff1661117857604051638dfc202b60e01b815260040160405180910390fd5b600154600160a01b900460ff16156111785760405163d93c066560e01b815260040160405180910390fd5b60405180610120016040528060008152602001606081526020016000815260200160006001600160a01b03168152602001606081526020016060815260200160001515815260200160008152602001600080191681525090565b828054828255906000526020600020908101928215612ccf579160200282015b82811115612ccf57825182546001600160a01b0319166001600160a01b03909116178255602090920191600190910190612c9a565b50612cdb929150612d1a565b5090565b828054828255906000526020600020908101928215612ccf579160200282015b82811115612ccf578251825591602001919060010190612cff565b5b80821115612cdb5760008155600101612d1b565b80356001600160a01b0381168114612d4657600080fd5b919050565b600060208284031215612d5d57600080fd5b612d6682612d2f565b9392505050565b6000815180845260005b81811015612d9357602081850181015186830182015201612d77565b506000602082860101526020601f19601f83011685010191505092915050565b6001600160a01b038716815260c060208201819052600090612dd790830188612d6d565b6040830196909652506060810193909352901515608083015260a09091015292915050565b600060208284031215612e0e57600080fd5b5035919050565b602080825282516001600160a01b03168282015282015160c06040830152600090612e4360e0840182612d6d565b905060408401516060840152606084015160808401526080840151151560a084015260a084015160c08401528091505092915050565b634e487b7160e01b600052604160045260246000fd5b604051601f8201601f1916810167ffffffffffffffff81118282101715612eb857612eb8612e79565b604052919050565b600082601f830112612ed157600080fd5b813567ffffffffffffffff811115612eeb57612eeb612e79565b612efe601f8201601f1916602001612e8f565b818152846020838601011115612f1357600080fd5b816020850160208301376000918101602001919091529392505050565b60008060408385031215612f4357600080fd5b82359150602083013567ffffffffffffffff811115612f6157600080fd5b612f6d85828601612ec0565b9150509250929050565b600081518084526020808501945080840160005b83811015612fb05781516001600160a01b031687529582019590820190600101612f8b565b509495945050505050565b600081518084526020808501945080840160005b83811015612fb057815187529582019590820190600101612fcf565b600061012082518452602083015181602086015261300b82860182612d6d565b91505060408301516040850152606083015161303260608601826001600160a01b03169052565b506080830151848203608086015261304a8282612f77565b91505060a083015184820360a08601526130648282612fbb565b91505060c083015161307a60c086018215159052565b5060e083810151908501526101009283015192909301919091525090565b602081526000612d666020830184612feb565b602081526000612d666020830184612d6d565b600080604083850312156130d157600080fd5b50508035926020909101359150565b6000604082016040835280855180835260608501915060608160051b8601019250602080880160005b8381101561313757605f19888703018552613125868351612feb565b95509382019390820190600101613109565b50509490940194909452949350505050565b60408152600061315c6040830185612f77565b90508260208301529392505050565b87815260e06020820152600061318460e0830189612d6d565b6040830197909752506001600160a01b03949094166060850152911515608084015260a083015260c09091015292915050565b600080604083850312156131ca57600080fd5b6131d383612d2f565b9150602083013567ffffffffffffffff811115612f6157600080fd5b6000806040838503121561320257600080fd5b61320b83612d2f565b915061321960208401612d2f565b90509250929050565b6000806000806080858703121561323857600080fd5b843567ffffffffffffffff8082111561325057600080fd5b61325c88838901612ec0565b95506020915081870135945060408701358181111561327a57600080fd5b8701601f8101891361328b57600080fd5b80358281111561329d5761329d612e79565b8060051b92506132ae848401612e8f565b818152928201840192848101908b8511156132c857600080fd5b928501925b848410156132ed576132de84612d2f565b825292850192908501906132cd565b989b979a509798606001359750505050505050565b600181811c9082168061331657607f821691505b6020821081036113aa57634e487b7160e01b600052602260045260246000fd5b6020808252600f908201526e496e76616c6964206164647265737360881b604082015260600190565b634e487b7160e01b600052603260045260246000fd5b634e487b7160e01b600052601160045260246000fd5b8181038181111561287357612873613375565b634e487b7160e01b600052603160045260246000fd5b6000600182016133c6576133c6613375565b5060010190565b8082018082111561287357612873613375565b60208082526012908201527110dbdb9d1c9858dd081a5cc81c185d5cd95960721b604082015260600190565b601f82111561345257600081815260208120601f850160051c810160208610156134335750805b601f850160051c820191505b81811015611ee85782815560010161343f565b505050565b815167ffffffffffffffff81111561347157613471612e79565b6134858161347f8454613302565b8461340c565b602080601f8311600181146134ba57600084156134a25750858301515b600019600386901b1c1916600185901b178555611ee8565b600085815260208120601f198616915b828110156134e9578886015182559484019460019091019084016134ca565b50858210156135075787850151600019600388901b60f8161c191681555b5050505050600190811b01905550565b634e487b7160e01b600052601260045260246000fd5b60008261353c5761353c613517565b500490565b60008261355057613550613517565b500690565b634e487b7160e01b600052600160045260246000fd5b8281526040602082015260006135846040830184612d6d565b949350505050565b81810360008312801583831316838312821617156135ac576135ac613375565b5092915050565b60408152600061315c6040830185612d6d56fea2646970667358221220db4b4a5e7eddbec1b162a16e7c5a067130fff8734bcf52bb0560bacbe0fd6f9564736f6c63430008140033a2646970667358221220775295c6297aa2684147d5f34e16b3ccb4486d18fc0fe50654c32e79278afd3364736f6c63430008140033",
  "linkReferences": {},
  "deployedLinkReferences": {}
}