{
  "_format": "hh-sol-artifact-1",
  "contractName": "ExpenseFactoryExtensions",
  "sourceName": "contracts/ExpenseFactoryExtensions.sol",
  "abi": [
    {
      "inputs": [
        {
          "internalType": "address",
          "name": "_factory",
          "type": "address"
        }
      ],
      "stateMutability": "nonpayable",
      "type": "constructor"
    },
    {
      "inputs": [],
      "name": "factory",
      "outputs": [
        {
          "internalType": "contract ExpenseFactory",
          "name": "",
          "type": "address"
        }
      ],
      "stateMutability": "view",
      "type": "function"
    },
    {
      "inputs": [
        {
          "internalType": "uint256",
          "name": "_offset",
          "type": "uint256"
        },
        {
          "internalType": "uint256",
          "name": "_limit",
          "type": "uint256"
        }
      ],
      "name": "getAllGroupsPaginated",
      "outputs": [
        {
          "internalType": "address[]",
          "name": "groups",
          "type": "address[]"
        },
        {
          "internalType": "uint256",
          "name": "total",
          "type": "uint256"
        }
      ],
      "stateMutability": "view",
      "type": "function"
    },
    {
      "inputs": [],
      "name": "getFactoryStats",
      "outputs": [
        {
          "components": [
            {
              "internalType": "uint256",
              "name": "totalGroups",
              "type": "uint256"
            },
            {
              "internalType": "uint256",
              "name": "activeGroups",
              "type": "uint256"
            },
            {
              "internalType": "uint256",
              "name": "totalMembers",
              "type": "uint256"
            },
            {
              "internalType": "uint256",
              "name": "totalExpenses",
              "type": "uint256"
            }
          ],
          "internalType": "struct ExpenseFactoryExtensions.GroupStats",
          "name": "",
          "type": "tuple"
        }
      ],
      "stateMutability": "view",
      "type": "function"
    },
    {
      "inputs": [
        {
          "internalType": "address",
          "name": "_user",
          "type": "address"
        }
      ],
      "name": "getUserGroupsWithInfo",
      "outputs": [
        {
          "components": [
            {
              "internalType": "address",
              "name": "groupAddress",
              "type": "address"
            },
            {
              "internalType": "string",
              "name": "name",
              "type": "string"
            },
            {
              "internalType": "string",
              "name": "description",
              "type": "string"
            },
            {
              "internalType": "string",
              "name": "category",
              "type": "string"
            },
            {
              "internalType": "string",
              "name": "privacy",
              "type": "string"
            },
            {
              "internalType": "address",
              "name": "creator",
              "type": "address"
            },
            {
              "internalType": "uint256",
              "name": "createdAt",
              "type": "uint256"
            },
            {
              "internalType": "uint256",
              "name": "maxMembers",
              "type": "uint256"
            },
            {
              "internalType": "uint256",
              "name": "minimumContribution",
              "type": "uint256"
            },
            {
              "internalType": "string",
              "name": "contributionFrequency",
              "type": "string"
            },
            {
              "internalType": "bool",
              "name": "active",
              "type": "bool"
            }
          ],
          "internalType": "struct ExpenseFactory.GroupInfo[]",
          "name": "",
          "type": "tuple[]"
        }
      ],
      "stateMutability": "view",
      "type": "function"
    },
    {
      "inputs": [
        {
          "internalType": "string",
          "name": "_nameQuery",
          "type": "string"
        }
      ],
      "name": "searchGroups",
      "outputs": [
        {
          "internalType": "address[]",
          "name": "",
          "type": "address[]"
        }
      ],
      "stateMutability": "view",
      "type": "function"
    }
  ],
  "bytecode": "0x60a060405234801561001057600080fd5b5060405161127c38038061127c83398101604081905261002f91610040565b6001600160a01b0316608052610070565b60006020828403121561005257600080fd5b81516001600160a01b038116811461006957600080fd5b9392505050565b6080516111c16100bb6000396000818160cb01528181610165015281816102a4015281816103e3015281816104c101528181610611015281816107d2015261085c01526111c16000f3fe608060405234801561001057600080fd5b50600436106100575760003560e01c8063166902221461005c57806349d71d43146100855780637d4607d4146100a5578063c45a0155146100c6578063c922644514610105575b600080fd5b61006f61006a3660046109f6565b610140565b60405161007c9190610a6a565b60405180910390f35b610098610093366004610c3f565b610393565b60405161007c9190610d02565b6100b86100b3366004610d15565b61060a565b60405161007c929190610d37565b6100ed7f000000000000000000000000000000000000000000000000000000000000000081565b6040516001600160a01b03909116815260200161007c565b61010d6107a3565b60405161007c91908151815260208083015190820152604080830151908201526060918201519181019190915260800190565b604051631ed0272560e11b81526001600160a01b0382811660048301526060916000917f00000000000000000000000000000000000000000000000000000000000000001690633da04e4a90602401600060405180830381865afa1580156101ac573d6000803e3d6000fd5b505050506040513d6000823e601f3d908101601f191682016040526101d49190810190610d69565b9050600081516001600160401b038111156101f1576101f1610ba9565b60405190808252806020026020018201604052801561029357816020015b61028060405180610160016040528060006001600160a01b031681526020016060815260200160608152602001606081526020016060815260200160006001600160a01b03168152602001600081526020016000815260200160008152602001606081526020016000151581525090565b81526020019060019003908161020f5790505b50905060005b825181101561038b577f00000000000000000000000000000000000000000000000000000000000000006001600160a01b031663d83ff6d08483815181106102e3576102e3610e1a565b60200260200101516040518263ffffffff1660e01b815260040161031691906001600160a01b0391909116815260200190565b600060405180830381865afa158015610333573d6000803e3d6000fd5b505050506040513d6000823e601f3d908101601f1916820160405261035b9190810190610e8d565b82828151811061036d5761036d610e1a565b6020026020010181905250808061038390610ffa565b915050610299565b509392505050565b805160609082906103df5760405162461bcd60e51b8152602060048201526012602482015271456d7074792073656172636820717565727960701b604482015260640160405180910390fd5b60007f00000000000000000000000000000000000000000000000000000000000000006001600160a01b03166321cd3cae6040518163ffffffff1660e01b8152600401600060405180830381865afa15801561043f573d6000803e3d6000fd5b505050506040513d6000823e601f3d908101601f191682016040526104679190810190610d69565b9050600081516001600160401b0381111561048457610484610ba9565b6040519080825280602002602001820160405280156104ad578160200160208202803683370190505b5090506000805b83518110156105ff5760007f00000000000000000000000000000000000000000000000000000000000000006001600160a01b0316636ade18ca86848151811061050057610500610e1a565b60200260200101516040518263ffffffff1660e01b815260040161053391906001600160a01b0391909116815260200190565b600060405180830381865afa158015610550573d6000803e3d6000fd5b505050506040513d6000823e601f3d908101601f191682016040526105789190810190611013565b50505050505050505091505060008190506105938188610909565b156105ea578583815181106105aa576105aa610e1a565b60200260200101518585815181106105c4576105c4610e1a565b6001600160a01b0390921660209283029190910190910152836105e681610ffa565b9450505b505080806105f790610ffa565b9150506104b4565b508152949350505050565b60606000807f00000000000000000000000000000000000000000000000000000000000000006001600160a01b03166321cd3cae6040518163ffffffff1660e01b8152600401600060405180830381865afa15801561066d573d6000803e3d6000fd5b505050506040513d6000823e601f3d908101601f191682016040526106959190810190610d69565b80519091508086106106bb576040805160008152602081019091529350915061079c9050565b60006106c7868861114c565b9050818111156106d45750805b60006106e0888361115f565b90506000816001600160401b038111156106fc576106fc610ba9565b604051908082528060200260200182016040528015610725578160200160208202803683370190505b50905060005b82811015610792578561073e828c61114c565b8151811061074e5761074e610e1a565b602002602001015182828151811061076857610768610e1a565b6001600160a01b03909216602092830291909101909101528061078a81610ffa565b91505061072b565b5095509193505050505b9250929050565b6107ce6040518060800160405280600081526020016000815260200160008152602001600081525090565b60007f00000000000000000000000000000000000000000000000000000000000000006001600160a01b03166321cd3cae6040518163ffffffff1660e01b8152600401600060405180830381865afa15801561082e573d6000803e3d6000fd5b505050506040513d6000823e601f3d908101601f191682016040526108569190810190610d69565b905060007f00000000000000000000000000000000000000000000000000000000000000006001600160a01b0316639f9334e46040518163ffffffff1660e01b8152600401602060405180830381865afa1580156108b8573d6000803e3d6000fd5b505050506040513d601f19601f820116820180604052508101906108dc9190611172565b90506040518060800160405280828152602001835181526020016000815260200160008152509250505090565b600082518251111561091d575060006109d8565b60005b8251845161092e919061115f565b81116109d257600160005b84518110156109ad5784818151811061095457610954610e1a565b01602001516001600160f81b0319168661096e838661114c565b8151811061097e5761097e610e1a565b01602001516001600160f81b0319161461099b57600091506109ad565b806109a581610ffa565b915050610939565b5080156109bf576001925050506109d8565b50806109ca81610ffa565b915050610920565b50600090505b92915050565b6001600160a01b03811681146109f357600080fd5b50565b600060208284031215610a0857600080fd5b8135610a13816109de565b9392505050565b60005b83811015610a35578181015183820152602001610a1d565b50506000910152565b60008151808452610a56816020860160208601610a1a565b601f01601f19169290920160200192915050565b60006020808301818452808551808352604092508286019150828160051b87010184880160005b83811015610b9b57888303603f19018552815180516001600160a01b0316845261016088820151818a870152610ac982870182610a3e565b9150508782015185820389870152610ae18282610a3e565b91505060608083015186830382880152610afb8382610a3e565b9250505060808083015186830382880152610b168382610a3e565b9250505060a080830151610b34828801826001600160a01b03169052565b505060c0828101519086015260e0808301519086015261010080830151908601526101208083015186830382880152610b6d8382610a3e565b92505050610140808301519250610b878187018415159052565b509588019593505090860190600101610a91565b509098975050505050505050565b634e487b7160e01b600052604160045260246000fd5b60405161016081016001600160401b0381118282101715610be257610be2610ba9565b60405290565b604051601f8201601f191681016001600160401b0381118282101715610c1057610c10610ba9565b604052919050565b60006001600160401b03821115610c3157610c31610ba9565b50601f01601f191660200190565b600060208284031215610c5157600080fd5b81356001600160401b03811115610c6757600080fd5b8201601f81018413610c7857600080fd5b8035610c8b610c8682610c18565b610be8565b818152856020838501011115610ca057600080fd5b81602084016020830137600091810160200191909152949350505050565b600081518084526020808501945080840160005b83811015610cf75781516001600160a01b031687529582019590820190600101610cd2565b509495945050505050565b602081526000610a136020830184610cbe565b60008060408385031215610d2857600080fd5b50508035926020909101359150565b604081526000610d4a6040830185610cbe565b90508260208301529392505050565b8051610d64816109de565b919050565b60006020808385031215610d7c57600080fd5b82516001600160401b0380821115610d9357600080fd5b818501915085601f830112610da757600080fd5b815181811115610db957610db9610ba9565b8060051b9150610dca848301610be8565b8181529183018401918481019088841115610de457600080fd5b938501935b83851015610e0e5784519250610dfe836109de565b8282529385019390850190610de9565b98975050505050505050565b634e487b7160e01b600052603260045260246000fd5b600082601f830112610e4157600080fd5b8151610e4f610c8682610c18565b818152846020838601011115610e6457600080fd5b610e75826020830160208701610a1a565b949350505050565b80518015158114610d6457600080fd5b600060208284031215610e9f57600080fd5b81516001600160401b0380821115610eb657600080fd5b908301906101608286031215610ecb57600080fd5b610ed3610bbf565b610edc83610d59565b8152602083015182811115610ef057600080fd5b610efc87828601610e30565b602083015250604083015182811115610f1457600080fd5b610f2087828601610e30565b604083015250606083015182811115610f3857600080fd5b610f4487828601610e30565b606083015250608083015182811115610f5c57600080fd5b610f6887828601610e30565b608083015250610f7a60a08401610d59565b60a082015260c083015160c082015260e083015160e08201526101008084015181830152506101208084015183811115610fb357600080fd5b610fbf88828701610e30565b8284015250506101409150610fd5828401610e7d565b91810191909152949350505050565b634e487b7160e01b600052601160045260246000fd5b60006001820161100c5761100c610fe4565b5060010190565b60008060008060008060008060008060006101608c8e03121561103557600080fd5b61103e8c610d59565b9a5060208c01516001600160401b0381111561105957600080fd5b6110658e828f01610e30565b9a505060408c01516001600160401b0381111561108157600080fd5b61108d8e828f01610e30565b99505060608c01516001600160401b038111156110a957600080fd5b6110b58e828f01610e30565b98505060808c01516001600160401b038111156110d157600080fd5b6110dd8e828f01610e30565b9750506110ec60a08d01610d59565b955060c08c0151945060e08c015193506101008c015192506101208c01516001600160401b0381111561111e57600080fd5b61112a8e828f01610e30565b92505061113a6101408d01610e7d565b90509295989b509295989b9093969950565b808201808211156109d8576109d8610fe4565b818103818111156109d8576109d8610fe4565b60006020828403121561118457600080fd5b505191905056fea2646970667358221220a1ad2a0c712f84159673ef29a43df1172d090496ed0ba3c7ab2e15f1952eb34d64736f6c63430008140033",
  "linkReferences": {},
  "deployedLinkReferences": {}
}